{
  "contractName": "DataStore",
  "abi": [
    {
      "inputs": [
        {
          "internalType": "address[]",
          "name": "_signers",
          "type": "address[]"
        },
        {
          "internalType": "uint256",
          "name": "_requiredSignatures",
          "type": "uint256"
        }
      ],
      "stateMutability": "nonpayable",
      "type": "constructor"
    },
    {
      "anonymous": false,
      "inputs": [
        {
          "indexed": true,
          "internalType": "bytes32",
          "name": "encryptedValue",
          "type": "bytes32"
        },
        {
          "indexed": false,
          "internalType": "string",
          "name": "dataPointer",
          "type": "string"
        }
      ],
      "name": "DataStored",
      "type": "event"
    },
    {
      "anonymous": false,
      "inputs": [
        {
          "indexed": true,
          "internalType": "bytes32",
          "name": "encryptedValue",
          "type": "bytes32"
        },
        {
          "indexed": false,
          "internalType": "bool",
          "name": "isVerified",
          "type": "bool"
        }
      ],
      "name": "QueryVerified",
      "type": "event"
    },
    {
      "inputs": [],
      "name": "requiredSignatures",
      "outputs": [
        {
          "internalType": "uint256",
          "name": "",
          "type": "uint256"
        }
      ],
      "stateMutability": "view",
      "type": "function",
      "constant": true
    },
    {
      "inputs": [
        {
          "internalType": "bytes32",
          "name": "",
          "type": "bytes32"
        },
        {
          "internalType": "address",
          "name": "",
          "type": "address"
        }
      ],
      "name": "signatures",
      "outputs": [
        {
          "internalType": "bool",
          "name": "",
          "type": "bool"
        }
      ],
      "stateMutability": "view",
      "type": "function",
      "constant": true
    },
    {
      "inputs": [
        {
          "internalType": "uint256",
          "name": "",
          "type": "uint256"
        }
      ],
      "name": "signers",
      "outputs": [
        {
          "internalType": "address",
          "name": "",
          "type": "address"
        }
      ],
      "stateMutability": "view",
      "type": "function",
      "constant": true
    },
    {
      "inputs": [
        {
          "internalType": "bytes32",
          "name": "encryptedValue",
          "type": "bytes32"
        },
        {
          "internalType": "string",
          "name": "dataPointer",
          "type": "string"
        }
      ],
      "name": "storeData",
      "outputs": [],
      "stateMutability": "nonpayable",
      "type": "function"
    },
    {
      "inputs": [
        {
          "internalType": "bytes32",
          "name": "encryptedValue",
          "type": "bytes32"
        }
      ],
      "name": "getData",
      "outputs": [
        {
          "internalType": "string",
          "name": "",
          "type": "string"
        }
      ],
      "stateMutability": "view",
      "type": "function",
      "constant": true
    },
    {
      "inputs": [
        {
          "internalType": "bytes32",
          "name": "encryptedValue",
          "type": "bytes32"
        }
      ],
      "name": "storeSignature",
      "outputs": [],
      "stateMutability": "nonpayable",
      "type": "function"
    },
    {
      "inputs": [
        {
          "internalType": "bytes32",
          "name": "encryptedValue",
          "type": "bytes32"
        }
      ],
      "name": "verifyQuery",
      "outputs": [
        {
          "internalType": "bool",
          "name": "",
          "type": "bool"
        }
      ],
      "stateMutability": "view",
      "type": "function",
      "constant": true
    },
    {
      "inputs": [
        {
          "internalType": "bytes32",
          "name": "encryptedValue",
          "type": "bytes32"
        }
      ],
      "name": "resetSignatures",
      "outputs": [],
      "stateMutability": "nonpayable",
      "type": "function"
    }
  ],
  "bytecode": "0x60806040523480156200001157600080fd5b506040516200166538038062001665833981810160405281019062000037919062000278565b60008251116200007e576040517f08c379a0000000000000000000000000000000000000000000000000000000008152600401620000759062000378565b60405180910390fd5b60008111801562000090575081518111155b620000d2576040517f08c379a0000000000000000000000000000000000000000000000000000000008152600401620000c99062000356565b60405180910390fd5b8160029080519060200190620000ea929190620000fa565b50806003819055505050620004af565b82805482825590600052602060002090810192821562000176579160200282015b82811115620001755782518260006101000a81548173ffffffffffffffffffffffffffffffffffffffff021916908373ffffffffffffffffffffffffffffffffffffffff160217905550916020019190600101906200011b565b5b50905062000185919062000189565b5090565b5b80821115620001a45760008160009055506001016200018a565b5090565b6000620001bf620001b984620003ce565b6200039a565b90508083825260208201905082856020860282011115620001df57600080fd5b60005b85811015620002135781620001f888826200021d565b845260208401935060208301925050600181019050620001e2565b5050509392505050565b6000815190506200022e816200047b565b92915050565b600082601f8301126200024657600080fd5b815162000258848260208601620001a8565b91505092915050565b600081519050620002728162000495565b92915050565b600080604083850312156200028c57600080fd5b600083015167ffffffffffffffff811115620002a757600080fd5b620002b58582860162000234565b9250506020620002c88582860162000261565b9150509250929050565b6000620002e1601b83620003fd565b91507f496e76616c6964207265717569726564207369676e61747572657300000000006000830152602082019050919050565b600062000323601083620003fd565b91507f5369676e657273207265717569726564000000000000000000000000000000006000830152602082019050919050565b600060208201905081810360008301526200037181620002d2565b9050919050565b60006020820190508181036000830152620003938162000314565b9050919050565b6000604051905081810181811067ffffffffffffffff82111715620003c457620003c36200044c565b5b8060405250919050565b600067ffffffffffffffff821115620003ec57620003eb6200044c565b5b602082029050602081019050919050565b600082825260208201905092915050565b60006200041b8262000422565b9050919050565b600073ffffffffffffffffffffffffffffffffffffffff82169050919050565b6000819050919050565b7f4e487b7100000000000000000000000000000000000000000000000000000000600052604160045260246000fd5b62000486816200040e565b81146200049257600080fd5b50565b620004a08162000442565b8114620004ac57600080fd5b50565b6111a680620004bf6000396000f3fe608060405234801561001057600080fd5b50600436106100885760003560e01c806354f6127f1161005b57806354f6127f146101255780638d06804314610155578063d07a218414610173578063dc18fa951461018f57610088565b8063076d43141461008d5780632079fb9a146100a95780634d5811d0146100d957806353794a9314610109575b600080fd5b6100a760048036038101906100a29190610b66565b6101bf565b005b6100c360048036038101906100be9190610c1f565b610430565b6040516100d09190610dee565b60405180910390f35b6100f360048036038101906100ee9190610b66565b61046f565b6040516101009190610e09565b60405180910390f35b610123600480360381019061011e9190610bcb565b61057e565b005b61013f600480360381019061013a9190610b66565b610686565b60405161014c9190610e24565b60405180910390f35b61015d61078b565b60405161016a9190610ee6565b60405180910390f35b61018d60048036038101906101889190610b66565b610791565b005b6101a960048036038101906101a49190610b8f565b6109ed565b6040516101b69190610e09565b60405180910390f35b6000805b600280549050811015610284576002818154811061020a577f4e487b7100000000000000000000000000000000000000000000000000000000600052603260045260246000fd5b9060005260206000200160009054906101000a900473ffffffffffffffffffffffffffffffffffffffff1673ffffffffffffffffffffffffffffffffffffffff163373ffffffffffffffffffffffffffffffffffffffff1614156102715760019150610284565b808061027c90611044565b9150506101c3565b50806102c5576040517f08c379a00000000000000000000000000000000000000000000000000000000081526004016102bc90610e86565b60405180910390fd5b600080600084815260200190815260200160002080546102e490611012565b905011610326576040517f08c379a000000000000000000000000000000000000000000000000000000000815260040161031d90610e46565b60405180910390fd5b6001600083815260200190815260200160002060003373ffffffffffffffffffffffffffffffffffffffff1673ffffffffffffffffffffffffffffffffffffffff16815260200190815260200160002060009054906101000a900460ff16156103c4576040517f08c379a00000000000000000000000000000000000000000000000000000000081526004016103bb90610ea6565b60405180910390fd5b600180600084815260200190815260200160002060003373ffffffffffffffffffffffffffffffffffffffff1673ffffffffffffffffffffffffffffffffffffffff16815260200190815260200160002060006101000a81548160ff0219169083151502179055505050565b6002818154811061044057600080fd5b906000526020600020016000915054906101000a900473ffffffffffffffffffffffffffffffffffffffff1681565b6000806000905060005b60028054905081101561056f57600160008581526020019081526020016000206000600283815481106104d5577f4e487b7100000000000000000000000000000000000000000000000000000000600052603260045260246000fd5b9060005260206000200160009054906101000a900473ffffffffffffffffffffffffffffffffffffffff1673ffffffffffffffffffffffffffffffffffffffff1673ffffffffffffffffffffffffffffffffffffffff16815260200190815260200160002060009054906101000a900460ff161561055c57818061055890611044565b9250505b808061056790611044565b915050610479565b50600354811015915050919050565b60008151116105c2576040517f08c379a00000000000000000000000000000000000000000000000000000000081526004016105b990610ec6565b60405180910390fd5b600080600084815260200190815260200160002080546105e190611012565b905014610623576040517f08c379a000000000000000000000000000000000000000000000000000000000815260040161061a90610e66565b60405180910390fd5b806000808481526020019081526020016000209080519060200190610649929190610a1c565b50817fb47f325ec5ac1f68149ca2686e2905c3e99b66bbeb96c5926eb5f91b7ba6388d8260405161067a9190610e24565b60405180910390a25050565b6060600080600084815260200190815260200160002080546106a790611012565b9050116106e9576040517f08c379a00000000000000000000000000000000000000000000000000000000081526004016106e090610e46565b60405180910390fd5b600080838152602001908152602001600020805461070690611012565b80601f016020809104026020016040519081016040528092919081815260200182805461073290611012565b801561077f5780601f106107545761010080835404028352916020019161077f565b820191906000526020600020905b81548152906001019060200180831161076257829003601f168201915b50505050509050919050565b60035481565b6000805b60028054905081101561085657600281815481106107dc577f4e487b7100000000000000000000000000000000000000000000000000000000600052603260045260246000fd5b9060005260206000200160009054906101000a900473ffffffffffffffffffffffffffffffffffffffff1673ffffffffffffffffffffffffffffffffffffffff163373ffffffffffffffffffffffffffffffffffffffff1614156108435760019150610856565b808061084e90611044565b915050610795565b5080610897576040517f08c379a000000000000000000000000000000000000000000000000000000000815260040161088e90610e86565b60405180910390fd5b600080600084815260200190815260200160002080546108b690611012565b9050116108f8576040517f08c379a00000000000000000000000000000000000000000000000000000000081526004016108ef90610e46565b60405180910390fd5b60005b6002805490508110156109e857600060016000858152602001908152602001600020600060028481548110610959577f4e487b7100000000000000000000000000000000000000000000000000000000600052603260045260246000fd5b9060005260206000200160009054906101000a900473ffffffffffffffffffffffffffffffffffffffff1673ffffffffffffffffffffffffffffffffffffffff1673ffffffffffffffffffffffffffffffffffffffff16815260200190815260200160002060006101000a81548160ff02191690831515021790555080806109e090611044565b9150506108fb565b505050565b60016020528160005260406000206020528060005260406000206000915091509054906101000a900460ff1681565b828054610a2890611012565b90600052602060002090601f016020900481019282610a4a5760008555610a91565b82601f10610a6357805160ff1916838001178555610a91565b82800160010185558215610a91579182015b82811115610a90578251825591602001919060010190610a75565b5b509050610a9e9190610aa2565b5090565b5b80821115610abb576000816000905550600101610aa3565b5090565b6000610ad2610acd84610f32565b610f01565b905082815260208101848484011115610aea57600080fd5b610af5848285610fd0565b509392505050565b600081359050610b0c8161112b565b92915050565b600081359050610b2181611142565b92915050565b600082601f830112610b3857600080fd5b8135610b48848260208601610abf565b91505092915050565b600081359050610b6081611159565b92915050565b600060208284031215610b7857600080fd5b6000610b8684828501610b12565b91505092915050565b60008060408385031215610ba257600080fd5b6000610bb085828601610b12565b9250506020610bc185828601610afd565b9150509250929050565b60008060408385031215610bde57600080fd5b6000610bec85828601610b12565b925050602083013567ffffffffffffffff811115610c0957600080fd5b610c1585828601610b27565b9150509250929050565b600060208284031215610c3157600080fd5b6000610c3f84828501610b51565b91505092915050565b610c5181610f7e565b82525050565b610c6081610f90565b82525050565b6000610c7182610f62565b610c7b8185610f6d565b9350610c8b818560208601610fdf565b610c948161111a565b840191505092915050565b6000610cac600f83610f6d565b91507f44617461206e6f7420666f756e642e00000000000000000000000000000000006000830152602082019050919050565b6000610cec601483610f6d565b91507f4461746120616c7265616479206578697374732e0000000000000000000000006000830152602082019050919050565b6000610d2c601883610f6d565b91507f4e6f7420616e20617574686f72697a6564207369676e657200000000000000006000830152602082019050919050565b6000610d6c601983610f6d565b91507f5369676e617475726520616c72656164792073746f7265642e000000000000006000830152602082019050919050565b6000610dac601d83610f6d565b91507f4461746120706f696e7465722063616e6e6f7420626520656d7074792e0000006000830152602082019050919050565b610de881610fc6565b82525050565b6000602082019050610e036000830184610c48565b92915050565b6000602082019050610e1e6000830184610c57565b92915050565b60006020820190508181036000830152610e3e8184610c66565b905092915050565b60006020820190508181036000830152610e5f81610c9f565b9050919050565b60006020820190508181036000830152610e7f81610cdf565b9050919050565b60006020820190508181036000830152610e9f81610d1f565b9050919050565b60006020820190508181036000830152610ebf81610d5f565b9050919050565b60006020820190508181036000830152610edf81610d9f565b9050919050565b6000602082019050610efb6000830184610ddf565b92915050565b6000604051905081810181811067ffffffffffffffff82111715610f2857610f276110eb565b5b8060405250919050565b600067ffffffffffffffff821115610f4d57610f4c6110eb565b5b601f19601f8301169050602081019050919050565b600081519050919050565b600082825260208201905092915050565b6000610f8982610fa6565b9050919050565b60008115159050919050565b6000819050919050565b600073ffffffffffffffffffffffffffffffffffffffff82169050919050565b6000819050919050565b82818337600083830152505050565b60005b83811015610ffd578082015181840152602081019050610fe2565b8381111561100c576000848401525b50505050565b6000600282049050600182168061102a57607f821691505b6020821081141561103e5761103d6110bc565b5b50919050565b600061104f82610fc6565b91507fffffffffffffffffffffffffffffffffffffffffffffffffffffffffffffffff8214156110825761108161108d565b5b600182019050919050565b7f4e487b7100000000000000000000000000000000000000000000000000000000600052601160045260246000fd5b7f4e487b7100000000000000000000000000000000000000000000000000000000600052602260045260246000fd5b7f4e487b7100000000000000000000000000000000000000000000000000000000600052604160045260246000fd5b6000601f19601f8301169050919050565b61113481610f7e565b811461113f57600080fd5b50565b61114b81610f9c565b811461115657600080fd5b50565b61116281610fc6565b811461116d57600080fd5b5056fea2646970667358221220a5df950fe85a518c488f2418556a0db32541f335b6cdc87d0cacbab8a07cbd5664736f6c63430008000033",
  "immutableReferences": {},
  "source": "// SPDX-License-Identifier: MIT\r\npragma solidity ^0.8.0;\r\n\r\ncontract DataStore {\r\n    mapping(bytes32 => string) private dataPointers; // Encrypted value to data pointer (e.g., S3 URL)\r\n    mapping(bytes32 => mapping(address => bool)) public signatures; // For multi-signature query verification\r\n    address[] public signers; // List of signers' addresses\r\n    uint256 public requiredSignatures; // Number of required signatures for verification\r\n\r\n    event DataStored(bytes32 indexed encryptedValue, string dataPointer);\r\n    event QueryVerified(bytes32 indexed encryptedValue, bool isVerified);\r\n\r\n    modifier onlySigner() {\r\n        bool isSigner = false;\r\n        for (uint256 i = 0; i < signers.length; i++) {\r\n            if (msg.sender == signers[i]) {\r\n                isSigner = true;\r\n                break;\r\n            }\r\n        }\r\n        require(isSigner, \"Not an authorized signer\");\r\n        _;\r\n    }\r\n\r\n    constructor(address[] memory _signers, uint256 _requiredSignatures) {\r\n        require(_signers.length > 0, \"Signers required\");\r\n        require(\r\n            _requiredSignatures > 0 && _requiredSignatures <= _signers.length,\r\n            \"Invalid required signatures\"\r\n        );\r\n        signers = _signers;\r\n        requiredSignatures = _requiredSignatures;\r\n    }\r\n\r\n    // Store encrypted data along with its pointer (S3 URL or metadata)\r\n    function storeData(bytes32 encryptedValue, string memory dataPointer) public {\r\n        require(bytes(dataPointer).length > 0, \"Data pointer cannot be empty.\");\r\n        require(bytes(dataPointers[encryptedValue]).length == 0, \"Data already exists.\");\r\n        dataPointers[encryptedValue] = dataPointer;\r\n        emit DataStored(encryptedValue, dataPointer);\r\n    }\r\n\r\n    // Get the data pointer for the encrypted value\r\n    function getData(bytes32 encryptedValue) public view returns (string memory) {\r\n        require(bytes(dataPointers[encryptedValue]).length > 0, \"Data not found.\");\r\n        return dataPointers[encryptedValue];\r\n    }\r\n\r\n    // Store signature for a specific query (multi-signature mechanism)\r\n    function storeSignature(bytes32 encryptedValue) public onlySigner {\r\n        require(bytes(dataPointers[encryptedValue]).length > 0, \"Data not found.\");\r\n        require(!signatures[encryptedValue][msg.sender], \"Signature already stored.\");\r\n        signatures[encryptedValue][msg.sender] = true;\r\n    }\r\n\r\n    // Verify if a query has enough signatures\r\n    function verifyQuery(bytes32 encryptedValue) public view returns (bool) {\r\n        uint256 signatureCount = 0;\r\n        for (uint256 i = 0; i < signers.length; i++) {\r\n            if (signatures[encryptedValue][signers[i]]) {\r\n                signatureCount++;\r\n            }\r\n        }\r\n        return signatureCount >= requiredSignatures;\r\n    }\r\n\r\n    // Reset signatures for a specific query (for a new query)\r\n    function resetSignatures(bytes32 encryptedValue) public onlySigner {\r\n        require(bytes(dataPointers[encryptedValue]).length > 0, \"Data not found.\");\r\n        for (uint256 i = 0; i < signers.length; i++) {\r\n            signatures[encryptedValue][signers[i]] = false;\r\n        }\r\n    }\r\n}\r\n",
  "sourcePath": "C:\\Users\\deetc\\Desktop\\flask-ethereum-app\\blockchain-flask\\contracts\\DataStore.sol",
  "compiler": {
    "name": "solc",
    "version": "0.8.0+commit.c7dfd78e.Emscripten.clang"
  },
  "schemaVersion": "3.4.16",
  "updatedAt": "2025-01-02T06:20:49.717Z",
  "networkType": "ethereum",
  "devdoc": {
    "kind": "dev",
    "methods": {},
    "version": 1
  },
  "userdoc": {
    "kind": "user",
    "methods": {},
    "version": 1
  }
}